:10018200020B000A020D0064010900010A000108C5
:01019200006C
:06012100C2A0AF0EAE0DFE
:04012700AB07AA0672
:10012B00900000C3E5829BE5839A5014751003750C
:10013B0011E8AE10AF11AD82AC83120194A380E332
:01014B002291
:030003000201698E
:10016900C0E0C0D0C2A80509E509B4FF03750900BC
:09017900D2A8C200D0D0D0E032BF
:02009200A907BC
:10009400750F08C2A1AF0CAE0B1201271201231277
:1000A4000121D2A0120123E93392A1AF0CAE0B12AD
:1000B4000127120123120121D2A0120123E925E014
:1000C40004F9D50FE2D2A1AF0CAE0B120127120135
:0D00D40023120121D2A0120123D2A0D2A13B
:0100E10022FC
:10014C007F0AE4FE20A2FDEFD394014008EE25E0E7
:0C015C00FE30A3010E30A2FDDFEAAF066A
:010168002274
:0A01A600E4F509D288D2A8D2AF22F6
:1000E2001201A6E4F590D2A0D2A130801830000906
:1000F200AF0CAE0B12012780F4850990AF091200F4
:1001020092D20080E520801630A209AF0CAE0B120D
:0F011200012780F412014C8F0A850A9080E722A2
:03000000020006F5
:0C000600787FE4F6D8FD75812002004DE3
:10019400EF8DF0A4A8F0CF8CF0A428CE8DF0A42E7F
:0201A400FE2239
:100012000200E2E493A3F8E493A34003F68001F222
:1000220008DFF48029E493A3F85407240CC8C333EF
:10003200C4540F4420C8834004F456800146F6DFBE
:10004200E4800B0102040810204080900182E47ECB
:10005200019360BCA3FF543F30E509541FFEE493B3
:10006200A360010ECF54C025E060A840B8E493A37A
:10007200FAE493A3F8E493A3C8C582C8CAC583CAA5
:10008200F0A3C8C582C8CAC583CADFE9DEE780BE5D
:01019300006B
:00000001FF
