:10016000C180020B000A020D0064010900010A00AF
:0301700001080083
:0400FB00AF0CAE0B8D
:0400FF00AB07AA069B
:10010300900000C3E5829BE5839A50147510037534
:1001130011E8AE10AF11AD82AC83120174A380E37A
:0101230022B9
:03000300020147B0
:10014700C0E0C0D0C2A80509E509B4FF03750900DE
:09015700D2A8C200D0D0D0E032E1
:0200C900A90785
:1000CB00750F08E93392A11200FBAF0EAE0D1200B3
:1000DB00FFC2A0AF0EAE0D1200FFD2A0AF0EAE0D41
:0F00EB001200FFE925E004F9D50FD8D2A0D2A169
:0100FA0022E3
:10012400750F08E4F930A2051200FB80F8E925E018
:10013400F930A3010920A2051200FB80F8D50FE5D0
:02014400AF0109
:010146002296
:0A018600E4F509D288D2A8D2AF2216
:10009200120186E4F590D2A0D2A13080143000057E
:1000A2001200FB80F8850990AF091200C9D20080C6
:1000B200E920801230A2051200FB80F81201248F81
:0700C2000A850A9080EB2281
:03000000020006F5
:0C000600787FE4F6D8FD75812002004DE3
:10017400EF8DF0A4A8F0CF8CF0A428CE8DF0A42E9F
:02018400FE2259
:10001200020092E493A3F8E493A34003F68001F272
:1000220008DFF48029E493A3F85407240CC8C333EF
:10003200C4540F4420C8834004F456800146F6DFBE
:10004200E4800B0102040810204080900160E47EED
:10005200019360BCA3FF543F30E509541FFEE493B3
:10006200A360010ECF54C025E060A840B8E493A37A
:10007200FAE493A3F8E493A3C8C582C8CAC583CAA5
:10008200F0A3C8C582C8CAC583CADFE9DEE780BE5D
:01017300008B
:00000001FF
