:10000300AFA0EF1200B700797700697B00597D003C
:10001300497E0075B70065BB0055BD0045BE007144
:10002300D70061DB0051DD0041DE006DE7005DEBD1
:10003300004DED003DEE0000007D7590302275907F
:100043003122759032227590332275903422759047
:100053003522759036227590372275903822759027
:1000630039227590402275904122759042227590F5
:0E007300432275904422759045227590FF221D
:100081007590FF75A0EFAFA0EF2481601B24C060C5
:100091001224E0600924F0701275A0DF800D75A0B4
:1000A100BF800875A07F800375A0EF30B203759003
:0600B100FF12000380D0E5
:030000000200DD1E
:0C00DD00787FE4F6D8FD758107020081F1
:1000B700D083D082F8E4937012740193700DA3A3D8
:1000C70093F8740193F5828883E4737402936860EC
:0600D700EFA3A3A380DFEC
:00000001FF
